{
  "_format": "hh-sol-artifact-1",
  "contractName": "RA1L",
  "sourceName": "contracts/ra1l.sol",
  "abi": [
    {
      "inputs": [],
      "stateMutability": "nonpayable",
      "type": "constructor"
    },
    {
      "anonymous": false,
      "inputs": [
        {
          "indexed": true,
          "internalType": "address",
          "name": "owner",
          "type": "address"
        },
        {
          "indexed": true,
          "internalType": "address",
          "name": "approved",
          "type": "address"
        },
        {
          "indexed": true,
          "internalType": "uint256",
          "name": "tokenId",
          "type": "uint256"
        }
      ],
      "name": "Approval",
      "type": "event"
    },
    {
      "anonymous": false,
      "inputs": [
        {
          "indexed": true,
          "internalType": "address",
          "name": "owner",
          "type": "address"
        },
        {
          "indexed": true,
          "internalType": "address",
          "name": "operator",
          "type": "address"
        },
        {
          "indexed": false,
          "internalType": "bool",
          "name": "approved",
          "type": "bool"
        }
      ],
      "name": "ApprovalForAll",
      "type": "event"
    },
    {
      "anonymous": false,
      "inputs": [
        {
          "indexed": true,
          "internalType": "address",
          "name": "previousOwner",
          "type": "address"
        },
        {
          "indexed": true,
          "internalType": "address",
          "name": "newOwner",
          "type": "address"
        }
      ],
      "name": "OwnershipTransferred",
      "type": "event"
    },
    {
      "anonymous": false,
      "inputs": [
        {
          "indexed": true,
          "internalType": "address",
          "name": "from",
          "type": "address"
        },
        {
          "indexed": true,
          "internalType": "address",
          "name": "to",
          "type": "address"
        },
        {
          "indexed": true,
          "internalType": "uint256",
          "name": "tokenId",
          "type": "uint256"
        }
      ],
      "name": "Transfer",
      "type": "event"
    },
    {
      "inputs": [
        {
          "internalType": "address",
          "name": "to",
          "type": "address"
        },
        {
          "internalType": "uint256",
          "name": "tokenId",
          "type": "uint256"
        }
      ],
      "name": "approve",
      "outputs": [],
      "stateMutability": "nonpayable",
      "type": "function"
    },
    {
      "inputs": [
        {
          "internalType": "address",
          "name": "_requester",
          "type": "address"
        }
      ],
      "name": "approveDisclosure",
      "outputs": [],
      "stateMutability": "nonpayable",
      "type": "function"
    },
    {
      "inputs": [],
      "name": "autoApproveStatus",
      "outputs": [
        {
          "internalType": "bool",
          "name": "",
          "type": "bool"
        }
      ],
      "stateMutability": "view",
      "type": "function"
    },
    {
      "inputs": [
        {
          "internalType": "address",
          "name": "owner",
          "type": "address"
        }
      ],
      "name": "balanceOf",
      "outputs": [
        {
          "internalType": "uint256",
          "name": "",
          "type": "uint256"
        }
      ],
      "stateMutability": "view",
      "type": "function"
    },
    {
      "inputs": [
        {
          "internalType": "uint256",
          "name": "tokenId",
          "type": "uint256"
        }
      ],
      "name": "getApproved",
      "outputs": [
        {
          "internalType": "address",
          "name": "",
          "type": "address"
        }
      ],
      "stateMutability": "view",
      "type": "function"
    },
    {
      "inputs": [
        {
          "internalType": "address",
          "name": "owner",
          "type": "address"
        },
        {
          "internalType": "address",
          "name": "operator",
          "type": "address"
        }
      ],
      "name": "isApprovedForAll",
      "outputs": [
        {
          "internalType": "bool",
          "name": "",
          "type": "bool"
        }
      ],
      "stateMutability": "view",
      "type": "function"
    },
    {
      "inputs": [],
      "name": "isPartner",
      "outputs": [
        {
          "internalType": "bool",
          "name": "",
          "type": "bool"
        }
      ],
      "stateMutability": "view",
      "type": "function"
    },
    {
      "inputs": [
        {
          "internalType": "string",
          "name": "userData",
          "type": "string"
        }
      ],
      "name": "mint",
      "outputs": [],
      "stateMutability": "nonpayable",
      "type": "function"
    },
    {
      "inputs": [
        {
          "internalType": "address",
          "name": "to",
          "type": "address"
        },
        {
          "internalType": "string",
          "name": "userData",
          "type": "string"
        }
      ],
      "name": "mintFor",
      "outputs": [],
      "stateMutability": "nonpayable",
      "type": "function"
    },
    {
      "inputs": [],
      "name": "name",
      "outputs": [
        {
          "internalType": "string",
          "name": "",
          "type": "string"
        }
      ],
      "stateMutability": "view",
      "type": "function"
    },
    {
      "inputs": [],
      "name": "owner",
      "outputs": [
        {
          "internalType": "address",
          "name": "",
          "type": "address"
        }
      ],
      "stateMutability": "view",
      "type": "function"
    },
    {
      "inputs": [
        {
          "internalType": "uint256",
          "name": "tokenId",
          "type": "uint256"
        }
      ],
      "name": "ownerOf",
      "outputs": [
        {
          "internalType": "address",
          "name": "",
          "type": "address"
        }
      ],
      "stateMutability": "view",
      "type": "function"
    },
    {
      "inputs": [],
      "name": "renounceOwnership",
      "outputs": [],
      "stateMutability": "nonpayable",
      "type": "function"
    },
    {
      "inputs": [
        {
          "internalType": "address",
          "name": "_owner",
          "type": "address"
        }
      ],
      "name": "requestDisclosure",
      "outputs": [],
      "stateMutability": "nonpayable",
      "type": "function"
    },
    {
      "inputs": [
        {
          "internalType": "address[]",
          "name": "_owners",
          "type": "address[]"
        }
      ],
      "name": "requestMultiDisclosure",
      "outputs": [],
      "stateMutability": "nonpayable",
      "type": "function"
    },
    {
      "inputs": [
        {
          "internalType": "address",
          "name": "_owner",
          "type": "address"
        }
      ],
      "name": "retrieveDisclosure",
      "outputs": [
        {
          "internalType": "string",
          "name": "",
          "type": "string"
        }
      ],
      "stateMutability": "view",
      "type": "function"
    },
    {
      "inputs": [
        {
          "internalType": "address",
          "name": "_requester",
          "type": "address"
        }
      ],
      "name": "revokeDisclosure",
      "outputs": [],
      "stateMutability": "nonpayable",
      "type": "function"
    },
    {
      "inputs": [
        {
          "internalType": "address",
          "name": "from",
          "type": "address"
        },
        {
          "internalType": "address",
          "name": "to",
          "type": "address"
        },
        {
          "internalType": "uint256",
          "name": "tokenId",
          "type": "uint256"
        }
      ],
      "name": "safeTransferFrom",
      "outputs": [],
      "stateMutability": "nonpayable",
      "type": "function"
    },
    {
      "inputs": [
        {
          "internalType": "address",
          "name": "from",
          "type": "address"
        },
        {
          "internalType": "address",
          "name": "to",
          "type": "address"
        },
        {
          "internalType": "uint256",
          "name": "tokenId",
          "type": "uint256"
        },
        {
          "internalType": "bytes",
          "name": "data",
          "type": "bytes"
        }
      ],
      "name": "safeTransferFrom",
      "outputs": [],
      "stateMutability": "nonpayable",
      "type": "function"
    },
    {
      "inputs": [
        {
          "internalType": "address",
          "name": "operator",
          "type": "address"
        },
        {
          "internalType": "bool",
          "name": "approved",
          "type": "bool"
        }
      ],
      "name": "setApprovalForAll",
      "outputs": [],
      "stateMutability": "nonpayable",
      "type": "function"
    },
    {
      "inputs": [
        {
          "internalType": "address",
          "name": "partner",
          "type": "address"
        },
        {
          "internalType": "bool",
          "name": "status",
          "type": "bool"
        }
      ],
      "name": "setPartner",
      "outputs": [],
      "stateMutability": "nonpayable",
      "type": "function"
    },
    {
      "inputs": [
        {
          "internalType": "bytes4",
          "name": "interfaceId",
          "type": "bytes4"
        }
      ],
      "name": "supportsInterface",
      "outputs": [
        {
          "internalType": "bool",
          "name": "",
          "type": "bool"
        }
      ],
      "stateMutability": "view",
      "type": "function"
    },
    {
      "inputs": [],
      "name": "symbol",
      "outputs": [
        {
          "internalType": "string",
          "name": "",
          "type": "string"
        }
      ],
      "stateMutability": "view",
      "type": "function"
    },
    {
      "inputs": [
        {
          "internalType": "bool",
          "name": "status",
          "type": "bool"
        }
      ],
      "name": "toggleApproval",
      "outputs": [],
      "stateMutability": "nonpayable",
      "type": "function"
    },
    {
      "inputs": [
        {
          "internalType": "uint256",
          "name": "tokenId",
          "type": "uint256"
        }
      ],
      "name": "tokenURI",
      "outputs": [
        {
          "internalType": "string",
          "name": "",
          "type": "string"
        }
      ],
      "stateMutability": "view",
      "type": "function"
    },
    {
      "inputs": [],
      "name": "totalSupply",
      "outputs": [
        {
          "internalType": "uint256",
          "name": "",
          "type": "uint256"
        }
      ],
      "stateMutability": "view",
      "type": "function"
    },
    {
      "inputs": [
        {
          "internalType": "address",
          "name": "from",
          "type": "address"
        },
        {
          "internalType": "address",
          "name": "to",
          "type": "address"
        },
        {
          "internalType": "uint256",
          "name": "tokenId",
          "type": "uint256"
        }
      ],
      "name": "transferFrom",
      "outputs": [],
      "stateMutability": "nonpayable",
      "type": "function"
    },
    {
      "inputs": [
        {
          "internalType": "address",
          "name": "newOwner",
          "type": "address"
        }
      ],
      "name": "transferOwnership",
      "outputs": [],
      "stateMutability": "nonpayable",
      "type": "function"
    },
    {
      "inputs": [
        {
          "internalType": "string",
          "name": "_uri",
          "type": "string"
        }
      ],
      "name": "updateURI",
      "outputs": [],
      "stateMutability": "nonpayable",
      "type": "function"
    },
    {
      "inputs": [
        {
          "internalType": "address",
          "name": "to",
          "type": "address"
        },
        {
          "internalType": "string",
          "name": "userData",
          "type": "string"
        }
      ],
      "name": "updateUserData",
      "outputs": [],
      "stateMutability": "nonpayable",
      "type": "function"
    },
    {
      "inputs": [],
      "name": "uri",
      "outputs": [
        {
          "internalType": "string",
          "name": "",
          "type": "string"
        }
      ],
      "stateMutability": "view",
      "type": "function"
    }
  ],
  "bytecode": "0x60c0604052602060809081527f68747470733a2f2f6170702e7261316c2e636f6d2f6170692f6e66742f69642f60a0526007906200003e908262000212565b5060006008553480156200009e5760405162461bcd60e51b815260206004820152602260248201527f45746865722073656e7420746f206e6f6e2d70617961626c652066756e637469604482019081526137b760f11b6064830152608482fd5b506040518060400160405280600481526020016314904c5360e21b8152506040518060400160405280600481526020016314904c5360e21b815250620000f3620000ed6200011960201b60201c565b6200011d565b600162000101838262000212565b50600262000110828262000212565b505050620002de565b3390565b600080546001600160a01b038381166001600160a01b0319831681178455604051919092169283917f8be0079c531659141344cd1fd0a4f28419497f9722a3daafe3b4186f6b6457e09190a35050565b634e487b7160e01b600052604160045260246000fd5b600181811c908216806200019857607f821691505b602082108103620001b957634e487b7160e01b600052602260045260246000fd5b50919050565b601f8211156200020d57600081815260208120601f850160051c81016020861015620001e85750805b601f850160051c820191505b818110156200020957828155600101620001f4565b5050505b505050565b81516001600160401b038111156200022e576200022e6200016d565b62000246816200023f845462000183565b84620001bf565b602080601f8311600181146200027e5760008415620002655750858301515b600019600386901b1c1916600185901b17855562000209565b600085815260208120601f198616915b82811015620002af578886015182559484019460019091019084016200028e565b5085821015620002ce5787850151600019600388901b60f8161c191681555b5050505050600190811b01905550565b6125a680620002ee6000396000f3fe608060405234801561005d5760405162461bcd60e51b815260206004820152602260248201527f45746865722073656e7420746f206e6f6e2d70617961626c652066756e637469604482019081526137b760f11b6064830152608482fd5b50600436106102325760003560e01c80637c93aad01161015c578063c87b56dd116100ef578063e985e9c5116100be578063e985e9c5146104de578063eac989f8146104f1578063f2fde38b146104f9578063f96e68b61461050c57610232565b8063c87b56dd14610492578063d85d3d27146104a5578063da659990146104b8578063e51d320c146104cb57610232565b8063a22cb4651161012b578063a22cb4651461042b578063b2cceae71461043e578063b88d4fde1461046c578063c30f4a5a1461047f57610232565b80637c93aad0146103ce57806382ebcbf01461040a5780638da5cb5b1461041257806395d89b411461042357610232565b80632364ad0c116101d45780636352211e116101a35780636352211e146103985780636e370c8d146103ab57806370a08231146103b3578063715018a6146103c657610232565b80632364ad0c1461034c57806323b872dd1461035f57806342842e0e146103725780634ed6a5f71461038557610232565b8063093f34b411610210578063093f34b4146102ff578063095ea7b31461031457806318160ddd1461032757806321acf6591461033957610232565b806301ffc9a71461029757806306fdde03146102bf578063081812fc146102d4575b60405162461bcd60e51b815260206004820152603560248201527f436f6e747261637420646f6573206e6f7420686176652066616c6c6261636b2060448201908152746e6f7220726563656976652066756e6374696f6e7360581b6064830152608482fd5b6102aa6102a5366004611ca7565b61051f565b60405190151581526020015b60405180910390f35b6102c7610571565b6040516102b69190611d17565b6102e76102e2366004611d2a565b610603565b6040516001600160a01b0390911681526020016102b6565b61031261030d366004611e02565b61062a565b005b610312610322366004611f0e565b6107f9565b6008545b6040519081526020016102b6565b610312610347366004611f4b565b610909565b61031261035a36600461204c565b61093c565b61031261036d3660046120a0565b6109ca565b6103126103803660046120a0565b610a12565b61031261039336600461204c565b610a2d565b6102e76103a6366004611d2a565b610ab2565b6102aa610b12565b61032b6103c13660046120df565b610b3b565b610312610bc1565b6103126103dc3660046120df565b336000908152600c602090815260408083206001600160a01b0394909416835292905220805460ff19169055565b6102aa610bd5565b6000546001600160a01b03166102e7565b6102c7610be0565b610312610439366004611f4b565b610bef565b61031261044c3660046120fd565b336000908152600a60205260409020805460ff1916911515919091179055565b61031261047a36600461211b565b610bfe565b61031261048d3660046121a0565b610c7c565b6102c76104a0366004611d2a565b610c90565b6103126104b33660046121a0565b610cf7565b6103126104c63660046120df565b610d53565b6103126104d93660046120df565b610e2c565b6102aa6104ec3660046121db565b610fa2565b6102c7610fd0565b6103126105073660046120df565b61105e565b6102c761051a3660046120df565b6110d7565b60006001600160e01b031982166380ac58cd60e01b148061055057506001600160e01b03198216635b5e139f60e01b145b8061056b57506301ffc9a760e01b6001600160e01b03198316145b92915050565b60606001805461058090612208565b80601f01602080910402602001604051908101604052809291908181526020018280546105ac90612208565b80156105f95780601f106105ce576101008083540402835291602001916105f9565b820191906000526020600020905b8154815290600101906020018083116105dc57829003601f168201915b5050505050905090565b600061060e8261123b565b506000908152600560205260409020546001600160a01b031690565b3360008181526009602052604090205460ff166106625760405162461bcd60e51b815260040161065990612242565b60405180910390fd5b60005b82518110156107f457600083828151811061068257610682612279565b602002602001015190506000805b600e5481101561073557826001600160a01b0316600e82815481106106b7576106b7612279565b60009182526020909120600290910201546001600160a01b03161480156107155750846001600160a01b0316600e82815481106106f6576106f6612279565b60009182526020909120600160029092020101546001600160a01b0316145b156107235760019150610735565b8061072d816122a5565b915050610690565b50806107df57604080518082019091526001600160a01b03808416825285811660208301908152600e8054600181018255600091909152925160029093027fbb7b4a454dc3493923482f07822329ed19e8244eff582cc204f8554c3620c3fd810180549484166001600160a01b031995861617905590517fbb7b4a454dc3493923482f07822329ed19e8244eff582cc204f8554c3620c3fe90910180549190921692169190911790555b505080806107ec906122a5565b915050610665565b505050565b600061080482610ab2565b9050806001600160a01b0316836001600160a01b0316036108715760405162461bcd60e51b815260206004820152602160248201527f4552433732313a20617070726f76616c20746f2063757272656e74206f776e656044820152603960f91b6064820152608401610659565b336001600160a01b038216148061088d575061088d8133610fa2565b6108ff5760405162461bcd60e51b815260206004820152603d60248201527f4552433732313a20617070726f76652063616c6c6572206973206e6f7420746f60448201527f6b656e206f776e6572206f7220617070726f76656420666f7220616c6c0000006064820152608401610659565b6107f4838361129a565b610911611308565b6001600160a01b03919091166000908152600960205260409020805460ff1916911515919091179055565b610944611308565b600061094f83610b3b565b116109a85760405162461bcd60e51b815260206004820152602360248201527f5241314c3a204163636f756e7420646f6573206e6f742068617665206120746f60448201526235b2b760e91b6064820152608401610659565b6001600160a01b0382166000908152600d602052604090206107f4828261230c565b60405162461bcd60e51b815260206004820152601b60248201527f5241314c3a20546f6b656e732061726520736f756c20626f756e6400000000006044820152606401610659565b6107f483838360405180602001604052806000815250610bfe565b610a35611308565b610a3e82610b3b565b15610a5b5760405162461bcd60e51b8152600401610659906123cc565b610a73826008546001610a6e9190612411565b611362565b6001600160a01b0382166000908152600d60205260409020610a95828261230c565b50600160086000828254610aa99190612411565b90915550505050565b6000818152600360205260408120546001600160a01b03168061056b5760405162461bcd60e51b8152602060048201526018602482015277115490cdcc8c4e881a5b9d985b1a59081d1bdad95b88125160421b6044820152606401610659565b6000600a81335b6001600160a01b0316815260208101919091526040016000205460ff16919050565b60006001600160a01b038216610ba55760405162461bcd60e51b815260206004820152602960248201527f4552433732313a2061646472657373207a65726f206973206e6f7420612076616044820152683634b21037bbb732b960b91b6064820152608401610659565b506001600160a01b031660009081526004602052604090205490565b610bc9611308565b610bd360006114ed565b565b600060098133610b19565b60606002805461058090612208565b610bfa33838361153d565b5050565b610c08338361160b565b610c6a5760405162461bcd60e51b815260206004820152602d60248201527f4552433732313a2063616c6c6572206973206e6f7420746f6b656e206f776e6560448201526c1c881bdc88185c1c1c9bdd9959609a1b6064820152608401610659565b610c768484848461166a565b50505050565b610c84611308565b6007610bfa828261230c565b6060610c9b8261123b565b6000610ca561169d565b90506000815111610cc55760405180602001604052806000815250610cf0565b80610ccf846116ac565b604051602001610ce0929190612424565b6040516020818303038152906040525b9392505050565b33610d0181610b3b565b15610d1e5760405162461bcd60e51b8152600401610659906123cc565b610d31816008546001610a6e9190612411565b6001600160a01b0381166000908152600d60205260409020610a95838261230c565b3360005b600e548110156107f457816001600160a01b0316600e8281548110610d7e57610d7e612279565b60009182526020909120600290910201546001600160a01b0316148015610ddc5750826001600160a01b0316600e8281548110610dbd57610dbd612279565b60009182526020909120600160029092020101546001600160a01b0316145b15610e1a576001600160a01b038083166000908152600c60209081526040808320938716835292905220805460ff191660011790556107f48161173f565b80610e24816122a5565b915050610d57565b3360008181526009602052604090205460ff16610e5b5760405162461bcd60e51b815260040161065990612242565b60005b600e54811015610eff57826001600160a01b0316600e8281548110610e8557610e85612279565b60009182526020909120600290910201546001600160a01b0316148015610ee35750816001600160a01b0316600e8281548110610ec457610ec4612279565b60009182526020909120600160029092020101546001600160a01b0316145b15610eed57505050565b80610ef7816122a5565b915050610e5e565b50604080518082019091526001600160a01b03928316815290821660208201908152600e8054600181018255600091909152915160029092027fbb7b4a454dc3493923482f07822329ed19e8244eff582cc204f8554c3620c3fd810180549385166001600160a01b031994851617905590517fbb7b4a454dc3493923482f07822329ed19e8244eff582cc204f8554c3620c3fe9091018054919093169116179055565b6001600160a01b03918216600090815260066020908152604080832093909416825291909152205460ff1690565b60078054610fdd90612208565b80601f016020809104026020016040519081016040528092919081815260200182805461100990612208565b80156110565780601f1061102b57610100808354040283529160200191611056565b820191906000526020600020905b81548152906001019060200180831161103957829003601f168201915b505050505081565b611066611308565b6001600160a01b0381166110cb5760405162461bcd60e51b815260206004820152602660248201527f4f776e61626c653a206e6577206f776e657220697320746865207a65726f206160448201526564647265737360d01b6064820152608401610659565b6110d4816114ed565b50565b336000818152600960205260409020546060919060ff1661110a5760405162461bcd60e51b815260040161065990612242565b6001600160a01b0383166000908152600a602052604090205460ff16156111d4576001600160a01b0383166000908152600d60205260409020805461114e90612208565b80601f016020809104026020016040519081016040528092919081815260200182805461117a90612208565b80156111c75780601f1061119c576101008083540402835291602001916111c7565b820191906000526020600020905b8154815290600101906020018083116111aa57829003601f168201915b5050505050915050919050565b6001600160a01b038084166000908152600c602090815260408083209385168352929052205460ff1615611225576001600160a01b0383166000908152600d60205260409020805461114e90612208565b5050604080516020810190915260008152919050565b6000818152600360205260409020546001600160a01b03166110d45760405162461bcd60e51b8152602060048201526018602482015277115490cdcc8c4e881a5b9d985b1a59081d1bdad95b88125160421b6044820152606401610659565b600081815260056020526040902080546001600160a01b0319166001600160a01b03841690811790915581906112cf82610ab2565b6001600160a01b03167f8c5be1e5ebec7d5bd14f71427d1e84f3dd0314c0f7b2291e5b200ac8c7c3b92560405160405180910390a45050565b6000546001600160a01b03163314610bd35760405162461bcd60e51b815260206004820181905260248201527f4f776e61626c653a2063616c6c6572206973206e6f7420746865206f776e65726044820152606401610659565b6001600160a01b0382166113b85760405162461bcd60e51b815260206004820181905260248201527f4552433732313a206d696e7420746f20746865207a65726f20616464726573736044820152606401610659565b6000818152600360205260409020546001600160a01b03161561141d5760405162461bcd60e51b815260206004820152601c60248201527f4552433732313a20746f6b656e20616c7265616479206d696e746564000000006044820152606401610659565b6000818152600360205260409020546001600160a01b0316156114825760405162461bcd60e51b815260206004820152601c60248201527f4552433732313a20746f6b656e20616c7265616479206d696e746564000000006044820152606401610659565b6001600160a01b038216600081815260046020908152604080832080546001019055848352600390915280822080546001600160a01b0319168417905551839291907fddf252ad1be2c89b69c2b068fc378daa952ba7f163c4a11628f55a4df523b3ef908290a45050565b600080546001600160a01b038381166001600160a01b0319831681178455604051919092169283917f8be0079c531659141344cd1fd0a4f28419497f9722a3daafe3b4186f6b6457e09190a35050565b816001600160a01b0316836001600160a01b03160361159e5760405162461bcd60e51b815260206004820152601960248201527f4552433732313a20617070726f766520746f2063616c6c6572000000000000006044820152606401610659565b6001600160a01b03838116600081815260066020908152604080832094871680845294825291829020805460ff191686151590811790915591519182527f17307eab39ab6107e8899845ad3d59bd9653f200f220920489ca2b5937696c31910160405180910390a3505050565b60008061161783610ab2565b9050806001600160a01b0316846001600160a01b0316148061163e575061163e8185610fa2565b806116625750836001600160a01b031661165784610603565b6001600160a01b0316145b949350505050565b611675848484611855565b611681848484846119b9565b610c765760405162461bcd60e51b815260040161065990612453565b60606007805461058090612208565b606060006116b983611b19565b600101905060008167ffffffffffffffff8111156116d9576116d9611d9f565b6040519080825280601f01601f191660200182016040528015611703576020820181803683370190505b5090508181016020015b600019016f181899199a1a9b1b9c1cb0b131b232b360811b600a86061a8153600a850494508461170d57509392505050565b600e5481106117865760405162461bcd60e51b8152602060048201526013602482015272496e646578206f7574206f6620626f756e647360681b6044820152606401610659565b600e8054611796906001906124a5565b815481106117a6576117a6612279565b9060005260206000209060020201600e82815481106117c7576117c7612279565b60009182526020909120825460029092020180546001600160a01b039283166001600160a01b0319918216178255600193840154939091018054939092169216919091179055600e80548061181e5761181e6124b8565b60008281526020902060026000199092019182020180546001600160a01b0319908116825560019190910180549091169055905550565b826001600160a01b031661186882610ab2565b6001600160a01b03161461188e5760405162461bcd60e51b8152600401610659906124ce565b6001600160a01b0382166118f05760405162461bcd60e51b8152602060048201526024808201527f4552433732313a207472616e7366657220746f20746865207a65726f206164646044820152637265737360e01b6064820152608401610659565b826001600160a01b031661190382610ab2565b6001600160a01b0316146119295760405162461bcd60e51b8152600401610659906124ce565b600081815260056020908152604080832080546001600160a01b03199081169091556001600160a01b0387811680865260048552838620805460001901905590871680865283862080546001019055868652600390945282852080549092168417909155905184937fddf252ad1be2c89b69c2b068fc378daa952ba7f163c4a11628f55a4df523b3ef91a4505050565b60006001600160a01b0384163b15611b0e57604051630a85bd0160e11b81526001600160a01b0385169063150b7a02906119fd903390899088908890600401612513565b602060405180830381600087803b158015611a675760405162461bcd60e51b815260206004820152602560248201527f54617267657420636f6e747261637420646f6573206e6f7420636f6e7461696e604482019081526420636f646560d81b6064830152608482fd5b505af1925050508015611a97575060408051601f3d908101601f19168201909252611a9491810190612550565b60015b611af4573d808015611ac5576040519150601f19603f3d011682016040523d82523d6000602084013e611aca565b606091505b508051600003611aec5760405162461bcd60e51b815260040161065990612453565b805181602001fd5b6001600160e01b031916630a85bd0160e11b149050611662565b506001949350505050565b60008072184f03e93ff9f4daa797ed6e38ed64bf6a1f0160401b8310611b585772184f03e93ff9f4daa797ed6e38ed64bf6a1f0160401b830492506040015b6d04ee2d6d415b85acef81000000008310611b84576d04ee2d6d415b85acef8100000000830492506020015b662386f26fc100008310611ba257662386f26fc10000830492506010015b6305f5e1008310611bba576305f5e100830492506008015b6127108310611bce57612710830492506004015b60648310611be0576064830492506002015b600a831061056b5760010192915050565b60405162461bcd60e51b815260206004820152602260248201527f414249206465636f64696e673a207475706c65206461746120746f6f2073686f6044820152611c9d60f21b6064820152608481fd5b60405162461bcd60e51b815260206004820152602260248201527f414249206465636f64696e673a20696e76616c6964207475706c65206f666673604482015261195d60f21b6064820152608481fd5b6001600160e01b0319811681146110d457600080fd5b600060208284031215611cbc57611cbc611bf1565b8135610cf081611c91565b60005b83811015611ce2578181015183820152602001611cca565b50506000910152565b60008151808452611d03816020860160208601611cc7565b601f01601f19169290920160200192915050565b602081526000610cf06020830184611ceb565b600060208284031215611d3f57611d3f611bf1565b5035919050565b60405162461bcd60e51b815260206004820152602b60248201527f414249206465636f64696e673a20696e76616c69642063616c6c64617461206160448201526a1c9c985e481bd9999cd95d60aa1b6064820152608481fd5b634e487b7160e01b600052604160045260246000fd5b604051601f8201601f1916810167ffffffffffffffff81118282101715611dde57611dde611d9f565b604052919050565b80356001600160a01b0381168114611dfd57600080fd5b919050565b60006020808385031215611e1857611e18611bf1565b823567ffffffffffffffff80821115611e3357611e33611c41565b818501915085601f830112611e4a57611e4a611d46565b813581811115611e5c57611e5c611d9f565b8060051b9150611e6d848301611db5565b8181529183018401918481019088841115611edd5760405162461bcd60e51b815260048101879052602b60248201527f414249206465636f64696e673a20696e76616c69642063616c6c64617461206160448201526a727261792073747269646560a81b60648201529250608483fd5b938501935b83851015611f0257611ef385611de6565b82529385019390850190611ee2565b98975050505050505050565b60008060408385031215611f2457611f24611bf1565b611f2d83611de6565b946020939093013593505050565b80358015158114611dfd57600080fd5b60008060408385031215611f6157611f61611bf1565b611f6a83611de6565b9150611f7860208401611f3b565b90509250929050565b600067ffffffffffffffff831115611f9b57611f9b611d9f565b611fae601f8401601f1916602001611db5565b90508281528383830111156120125760405162461bcd60e51b815260206004820152602760248201527f414249206465636f64696e673a20696e76616c69642062797465206172726179604482015266040d8cadccee8d60cb1b6064820152608481fd5b828260208301376000602084830101529392505050565b600082601f83011261203d5761203d611d46565b610cf083833560208501611f81565b6000806040838503121561206257612062611bf1565b61206b83611de6565b9150602083013567ffffffffffffffff81111561208a5761208a611c41565b61209685828601612029565b9150509250929050565b6000806000606084860312156120b8576120b8611bf1565b6120c184611de6565b92506120cf60208501611de6565b9150604084013590509250925092565b6000602082840312156120f4576120f4611bf1565b610cf082611de6565b60006020828403121561211257612112611bf1565b610cf082611f3b565b6000806000806080858703121561213457612134611bf1565b61213d85611de6565b935061214b60208601611de6565b925060408501359150606085013567ffffffffffffffff81111561217157612171611c41565b8501601f8101871361218557612185611d46565b61219487823560208401611f81565b91505092959194509250565b6000602082840312156121b5576121b5611bf1565b813567ffffffffffffffff8111156121cf576121cf611c41565b61166284828501612029565b600080604083850312156121f1576121f1611bf1565b6121fa83611de6565b9150611f7860208401611de6565b600181811c9082168061221c57607f821691505b60208210810361223c57634e487b7160e01b600052602260045260246000fd5b50919050565b6020808252601b908201527f5241314c3a20596f7520617265206e6f74206120706172746e65720000000000604082015260600190565b634e487b7160e01b600052603260045260246000fd5b634e487b7160e01b600052601160045260246000fd5b6000600182016122b7576122b761228f565b5060010190565b601f8211156107f457600081815260208120601f850160051c810160208610156122e55750805b601f850160051c820191505b81811015612304578281556001016122f1565b505050505050565b815167ffffffffffffffff81111561232657612326611d9f565b61233a816123348454612208565b846122be565b602080601f83116001811461236f57600084156123575750858301515b600019600386901b1c1916600185901b178555612304565b600085815260208120601f198616915b8281101561239e5788860151825594840194600190910190840161237f565b50858210156123bc5787850151600019600388901b60f8161c191681555b5050505050600190811b01905550565b60208082526025908201527f5241314c3a20596f75206d6179206f6e6c79206d696e7420312070657220616360408201526418dbdd5b9d60da1b606082015260800190565b8082018082111561056b5761056b61228f565b60008351612436818460208801611cc7565b83519083019061244a818360208801611cc7565b01949350505050565b60208082526032908201527f4552433732313a207472616e7366657220746f206e6f6e20455243373231526560408201527131b2b4bb32b91034b6b83632b6b2b73a32b960711b606082015260800190565b8181038181111561056b5761056b61228f565b634e487b7160e01b600052603160045260246000fd5b60208082526025908201527f4552433732313a207472616e736665722066726f6d20696e636f72726563742060408201526437bbb732b960d91b606082015260800190565b6001600160a01b038581168252841660208201526040810183905260806060820181905260009061254690830184611ceb565b9695505050505050565b60006020828403121561256557612565611bf1565b8151610cf081611c9156fea264697066735822122045947cf4a11e6fa6c4e6619f535a414d5c82bceb40058650ed93b0623729731f64736f6c63430008110033",
  "linkReferences": {},
  "deployedLinkReferences": {}
}